:020000040800F2
:10000000104E00209D01000811190008D1170008AA
:100010000D19000805030008951E000800000000E7
:10002000000000000000000000000000D1190008DE
:100030000903000800000000211900085D1A0008EB
:10004000B7010008B7010008B7010008B7010008B0
:10005000B7010008B7010008B7010008B7010008A0
:10006000B7010008B7010008B7010008B701000890
:10007000B7010008B7010008B7010008B701000880
:10008000B7010008B7010008B7010008B701000870
:10009000B7010008B7010008B7010008B701000860
:1000A000B7010008351B0008B7010008B7010008B8
:1000B000B7010008B7010008B7010008B701000840
:1000C000B7010008B7010008B7010008B701000830
:1000D000B7010008891E0008B7010008B701000831
:1000E000B7010008B7010008B7010008B701000810
:1000F000B7010008B7010008B7010008B701000800
:10010000B7010008B7010008B7010008B7010008EF
:10011000B7010008B7010008B7010008B7010008DF
:10012000B7010008B7010008B7010008B7010008CF
:10013000B7010008B7010008B7010008B7010008BF
:10014000B7010008B7010008B7010008B7010008AF
:10015000B7010008B7010008B7010008B70100089F
:10016000B7010008B7010008B7010008B70100088F
:10017000B7010008B7010008B7010008000000003F
:10018000B7010008B7010008DFF80CD000F0A2F8B2
:1001900000480047B91E0008104E0020064880475E
:1001A00006480047FEE7FEE7FEE7FEE7FEE7FEE75C
:1001B000FEE7FEE7FEE7FEE7211B000889010008D5
:1001C0002DE9F05F0546002092469B46884606468C
:1001D000814640241BE0284641464746224600F01F
:1001E00069F853465A46C01A914110D31146184631
:1001F000224600F050F82D1A67EB01084F462246C0
:100200000120002100F047F817EB00094E41201EA5
:10021000A4F10104DFDC484631462A464346BDE8E6
:10022000F09F40EA01039B0703D009E008C9121FB1
:1002300008C0042AFAD203E011F8013B00F8013BA0
:10024000521EF9D27047D2B201E000F8012B491ECC
:10025000FBD270470022F6E710B513460A46044663
:100260001946FFF7F0FF204610BD30B50B4601469A
:1002700000202022012409E021FA02F59D4205D345
:1002800003FA02F5491B04FA02F52844151EA2F1EF
:100290000102F1DC30BD202A04DB203A00FA02F131
:1002A000002070479140C2F1200320FA03F3194364
:1002B00090407047202A04DB203A21FA02F0002106
:1002C000704721FA02F3D040C2F120029140084366
:1002D000194670471CB50948009009480190054629
:1002E000009C06E0E06840F0010394E807009847AE
:1002F0001034AC42F6D3FFF74BFF00005C4100081E
:100300007C410008FEE700007047000072B600BFA5
:10031000FEE7000070B5866D044600F02BF994F8F6
:100320003510022928D105462068216C026822F088
:1003300016020260426922F08002426109B9A16C92
:1003400019B1016821F008010160016821F0010183
:10035000016000BF20680068C00715D000F00AF9EE
:10036000401B0628F6D320206065032084F8350062
:10037000002184F8341070BD8020606501200021C8
:1003800084F8341070BD00BFE06D3F2101FA00F029
:10039000B060012084F835000020002184F834107A
:1003A00070BD000090F83510022909D1052180F8B0
:1003B00035100068016821F00101016000207047DC
:1003C00080214165012070472DE9F04F82B000F196
:1003D0003E4707F1FF77860546EA972741F6004634
:1003E000C4F20206082243F6004EB04208BF0722BC
:1003F000C4F2010E072F38BF3A46002600274FF0FF
:100400000008009209E000BF08F101080237B8F1C6
:10041000100F06F1040600F0A3800D68012202FA15
:1004200008F415EA0409EFD0D1F804B003220BF068
:10043000030CACF10105BA40012D6FEA020A0FD896
:100440008268CD6802EA0A02BD402A43826042689F
:10045000A243CBF3001404FA08F42243426005E0FF
:10046000BCF1030F02D14FF0030C1EE0C2688C6890
:1004700002EA0A02BC402243BCF1020FC26014D15E
:100480006FF0030202EA58020244D2F820C006F0DC
:100490001C040F230D69A3402CEA0303A5402B4342
:1004A0001362D1F804B00BF0030C02680CFA07F3E6
:1004B00002EA0A021A431BF4403F0260A4D0002261
:1004C00043F644030192C4F202031A684FF6084C43
:1004D00042F480421A601A68CFF6FF7C02F4804230
:1004E0000192019A28F00302724452F80C3006F08F
:1004F0000C050F24AC40A343009C04FA05F52B43E4
:1005000042F80C30DEF808204B6842EA090543F651
:100510000C4CDC0258BF22EA0905CEF80850C4F2A0
:10052000010CDCF800209C0242EA090558BF22EACF
:100530000905CCF80050DEF804209C0342EA0905C6
:1005400058BF22EA0905CEF80450DEF80020DB038C
:1005500042EA090558BF22EA0905CEF8005053E7E0
:1005600002B0BDE8F08F0000002A08BF09048161D5
:100570007047000044F21430C2F200000068704777
:1005800040F2040044F21431C2F20000C2F2000151
:1005900000780A68104408607047000080B543F690
:1005A0000040C4F20200016841F40071016001687A
:1005B00041F480610160016841F4807101600320B1
:1005C00000F0C0F80F2000F005F800F05BF8002004
:1005D00080BD0000B0B586B0002543F6440101950A
:1005E000C4F202010A68044642F001020A60096886
:1005F00001A801F0010101910199694600F064F937
:1006000000F096F94DF68361C4F21B31A0FB0101A5
:100610004FF0FF3000EB914140F234100022C2F263
:100620000000C4F2010240F2E733C0E90021C0E952
:1006300002530561856100F0A1FB054610B1284613
:1006400006B0B0BD40F23410C2F2000000F0C6FBAC
:1006500005460028F3D1192000F036F80F2C0DD8EC
:10066000192021460022002500F040F840F2080041
:10067000C2F200000460284606B0B0BD012528463D
:1006800006B0B0BD82B0002043F640010190C4F234
:1006900002014A6842F480424A604A6802F4804299
:1006A0000192019A00900868002240F08050086092
:1006B00008680F2100F08050009000986FF0010052
:1006C00002B000F013B80000002848BF704700F0E7
:1006D0001F01012202FA01F11C2202EAD0004EF2AF
:1006E0000012CEF2000281507047000010B54EF6A5
:1006F0000C5CCEF2000CDCF80030C3F3022E8EF05E
:100700000704042C28BF0424BEF103034FF0FF3E6E
:100710000EFA04F438BF0023A14399400EFA03F304
:100720009A43114300F00F0200F160430901043ABB
:1007300003F564436244002848BF02F10C031970BA
:1007400010BD00004EF60C51CEF200010A684FF6C3
:10075000FF031A4060F30A2242F0806040F0FD700F
:1007600008607047002804BF012070472DE9F04160
:1007700043F60808C4F202080446D8F8F8030D4608
:1007800000F00700884207D288F8F853D8F8F80339
:1007900000F00700A84277D12068810717D54107EC
:1007A00005D5D8F8001041F4E051C8F80010010751
:1007B00005D5D8F8001041F46041C8F80010D8F809
:1007C0000010A26821F0F0011143C8F80010C00722
:1007D00040D1D8F8F80300F00700A84207D988F8FC
:1007E000F853D8F8F80300F00700A8424CD120686D
:1007F000410707D5D8F80010E26821F4E051114311
:10080000C8F80010000708D5D8F80000216920F4C6
:10081000604040EAC100C8F8000000F09DF8D8F838
:10082000001044F28802C1F30311C0F60002515CCB
:1008300040F20C0220FA01F140F20800C2F200007E
:100840000068C2F200021160FFF7C4FE0020BDE89C
:10085000F08100BF6068811E022907D258F8081C89
:1008600089015CBF0120BDE8F08111E0012807D1BA
:1008700058F8081C89035CBF0120BDE8F08107E03F
:1008800058F8081C890703D40120BDE8F08100BF97
:10089000D8F8001021F003010843C8F80000FFF762
:1008A00069FE064641F28837D8F80000616800F01A
:1008B0000C00B0EB810F8CD0FFF75CFE801BB842C0
:1008C000F2D90320BDE8F0810F22026043F608024E
:1008D000C4F20202136803F003034360136803F0D9
:1008E000F0038360136803F4E053C360D2F800C0E0
:1008F0004FF4E05303EADC030361D2F8F80300F09D
:10090000070008607047000040F20C0043F6080141
:10091000C2F20000C4F202010068096844F29802C1
:10092000C1F38221C0F60002515CC840704700004C
:1009300040F20C0043F60801C2F20000C4F20201CA
:100940000068096844F29802C1F34231C0F600021F
:10095000515CC8407047000010B543F60404C4F26F
:100960000204606800F00C0142F200400829C0F265
:10097000F40007D0042918BF10BD41F20020C0F2D6
:100980007A0010BD216801F03F0221682368490206
:10099000C3F3881106D4A1FB00010023FFF710FC6C
:1009A00007E000BF41F20020C0F27A004843B0FBEC
:1009B000F2F021680222C1F3014102EB4101B0FBD8
:1009C000F1F010BD002804BF012070472DE9F0416F
:1009D00082B00446007843F60006C007C4F202065F
:1009E0000CD0B06800F00C00042840F08180306822
:1009F000800303D56068002800F06A8120788007B2
:100A00001BD5B06810F00C0F09D0B06800F00C00D6
:100A1000082840F087807068400200F183803068C9
:100A2000800703D5E068012840F0528130682169D1
:100A300020F0F80040EAC10030602078000713D4AD
:100A4000207840072AD4A569002D00F03C81B068C9
:100A500000F00C00082840F0A180012D40F010812A
:100A6000012002B0BDE8F0816069002840F200007A
:100A7000C4F2472000F07E800121C0F8801EFFF7FD
:100A800079FD0546706F8007DAD4FFF773FD401BD0
:100A90000228F7D9032002B0BDE8F081306C5FEA8C
:100AA000C0080AD400200190306C40F080503064BF
:100AB000306C00F080500190019847F20007C4F2BA
:100AC00000073868C00547D4386840F48070386043
:100AD000FFF750FD054600BF3868C0053CD4FFF75E
:100AE00049FD401B0228F7D9032002B0BDE8F08180
:100AF000B06800F00C00082803D1706840023FF590
:100B000076AF6068B0F5803F07D0B0F5A02F40F019
:100B10009B80306840F480203060306840F4803042
:100B200030609BE0E06800285CD00020C4F24720E1
:100B300001210160FFF71EFD054600BF30688007F8
:100B40003FF574AFFFF716FD401B0228F6D90320CE
:100B500002B0BDE8F08100BFA068012805D00528DB
:100B600054D1306F40F004003067306F40F0010026
:100B7000306755E00021C0F8801EFFF7FBFC0546FA
:100B8000706F80077FF55CAFFFF7F4FC401B022815
:100B9000F6D9032002B0BDE8F08100BF0027C4F2FF
:100BA000472700203866FFF7E5FC022D05460DD1EA
:100BB0003068800140F19080FFF7DCFC401B022888
:100BC0004FF00300F4D902B0BDE8F0813068800135
:100BD00079D5FFF7CFFC401B02284FF00300F5D971
:100BE000F1E700BF0020C4F2472000210160FFF7B9
:100BF000C1FC0546306880077FF51FAFFFF7BAFCE0
:100C0000401B02284FF00300F4D9DCE7316F0028C5
:100C100021F001013167316F21F0040131677DD08E
:100C2000FFF7A8FC054641F2883700BF306F800708
:100C300000F18680FFF79EFC401BB842F6D90320E6
:100C400002B0BDE8F08100BF3168002821F4803196
:100C50003160316821F4802131607BD0FFF78AFC5C
:100C6000054600BF306880033FF5C8AEFFF782FC41
:100C7000401B6428F6D9032002B0BDE8F08100BF14
:100C80007068E16900F480028A4221D1216A00F093
:100C90003F028A421CD147F6C071626A0140B1EB43
:100CA000821F15D1A16A4FF6FF73C903994300F45F
:100CB0004032A1F580318A420AD1E16A00F07060C9
:100CC000B0EB016F04D1002002B0BDE8F08100BF9D
:100CD000012002B0BDE8F08104F11C052FCD0843CE
:100CE00040EA8210D9034FF6FF729143A1F580319B
:100CF00040EA05600843706001203866FFF73AFC5F
:100D0000044600BF30688001DDD4FFF733FC001BD0
:100D100002284FF00300F5D955E700BFFFF72AFC82
:100D2000054641F2883700BF306F800708D5FFF7CE
:100D300021FC401BB8424FF00300F5D943E700BF48
:100D4000B8F1000F3FF57FAE306C20F0805030647A
:100D500079E600BFFFF70EFC054600BF3068800350
:100D60007FF54CAEFFF706FC401B64284FF00300F4
:100D7000F4D928E77047000070470000002804BF3E
:100D80000120704710B5044690F83D0028B90020B6
:100D900084F83C00204600F01FF8022084F83D0053
:100DA0002068211D00F0CCFE012084F8460084F864
:100DB0003E0084F83F0084F8400084F8410084F845
:100DC000420084F8430084F8440084F8450084F825
:100DD0003D00002010BD00007047000090F83D105D
:100DE00001291CBF01207047022180F83D100068D6
:100DF00041F2FF72C168C4F20002904241F0010169
:100E0000C1600DDC40F2FF71C4F20001884215DCC4
:100E1000B0F1804F2AD040F20041C4F2000123E03B
:100E200040F2FF31C4F20101884213DC41F60001B7
:100E3000C4F20001884219D0002113E040F60001FD
:100E4000C4F20001884211D040F60041C4F2000112
:100E50000AE000BF44F20001C4F20101884205D05B
:100E600040F20041C4F20101884206D1816801F0DC
:100E70000701062904BF00207047016841F0010105
:100E800001600020704700007047000070B5044604
:100E90000068C5680669B10716D515F0020113D0C0
:100EA0006FF002010161012121778069800703D081
:100EB0002046FFF7E9FF05E0204600F08FF82046C6
:100EC00000F08EF800202077700719D515F0040087
:100ED00016D020686FF0040101610221217780693A
:100EE00010F4407F04D02046FFF7CEFF06E000BF9D
:100EF000204600F073F8204600F072F800202077BA
:100F0000300717D515F0080014D020686FF00801DD
:100F1000016104212177C069800703D02046FFF7D3
:100F2000B3FF05E0204600F059F8204600F058F8DD
:100F300000202077F00619D515F0100016D0206893
:100F40006FF01001016108212177C06910F4407F22
:100F500004D02046FFF798FF06E000BF204600F0CF
:100F60003DF8204600F03CF800202077F00718BF3D
:100F700015F0010002D1300609D412E020686FF0AC
:100F800001010161204600F02DF8300609D515F069
:100F9000800006D020686FF0800101612046FFF7D5
:100FA000E9FE700609D515F0400006D020686FF004
:100FB00040010161204600F01FF8B00658BF70BD27
:100FC00015F0200008D021686FF0200220460A6149
:100FD000BDE87040FFF7D0BE70BD00007047000054
:100FE0007047000000680021C4F20101884218BF68
:100FF0007047FFF7C5BA0000704700007047000057
:1010000070470000B0B582B0044600680168C3684C
:10101000426901F02F05202D03F0200506D12DB1E6
:10102000204602B0BDE8B04000F036BE5FEA017C69
:101030001EBF02F0010E03F4907212EB0E0243D1B8
:10104000226BCD0618D5012A16D113F0100213D049
:101050000021019101680191416801910199406964
:1010600040063BD4A08DE18DE28D002A18BF884256
:1010700040F0F28102B0B0BD0A0640F1E78013F003
:10108000800200F0E38094F841102129F2D1A16898
:10109000B1F5805F03D12169002900F06382216AE4
:1010A0004A1C226209784160E18C01390A04E1841A
:1010B000E0D1C16821F08001C160C16841F0400108
:1010C000C16002B0B0BD00BFCA0718BF13F4807280
:1010D00040F0D0804A0700F1D380D8E0E06B01688F
:1010E00049688AB2002AC5D0A38D9A42C2D2E1854E
:1010F000C069B0F5807F00F09D80206850E8030F44
:10110000216820F4807041E80302DAB1206850E8D9
:10111000030F216820F4807041E8030292B1206837
:1011200050E8030F216820F4807041E803024AB1BF
:10113000206850E8030F216820F4807041E8030222
:10114000002ADAD1206850E8050F216820F001005C
:1011500041E80502BAB3206850E8050F216820F085
:10116000010041E8050272B3206850E8050F2168CC
:1011700020F0010041E805022AB3206850E8050F7D
:10118000216820F0010041E80502002ADAD11AE0C6
:10119000206850E8050F216820F0400041E8050272
:1011A000DAB1206850E8050F216820F0400041E8DE
:1011B000050292B1206850E8050F216820F0400038
:1011C00041E805024AB1206850E8050F216820F087
:1011D000400041E80502002ADAD1202084F84200CC
:1011E00000202063206850E8030F216820F01000E1
:1011F00041E80302DAB1206850E8030F216820F0CB
:10120000100041E8030292B1206850E8030F216802
:1012100020F0100041E803024AB1206850E8030FB3
:10122000216820F0100041E80302002ADAD1E06BC7
:10123000FFF770F802206063A08DE18D401A81B243
:10124000204602B0BDE8B040FFF7D8BE49067FF5A2
:1012500011AF13F040013FF40DAFC16821F0400120
:10126000C1602021204684F8411002B0BDE8B040A2
:1012700000F0ACBA626C42F0010262644A0706D523
:10128000BEF1000F03D0626C42F0020262648A0772
:1012900006D5BEF1000F03D0626C42F00402626416
:1012A000BCF1000F06D55EEA050203D0626C42F085
:1012B00008026264626C002A3FF4DCAE890604D541
:1012C0001DB1204600F0E8FC20684069616C00F028
:1012D000400001F00801401800F0B680206850E896
:1012E000030F216820F4907041E80302BAB320682C
:1012F00050E8030F216820F4907041E8030272B3B4
:10130000206850E8030F216820F4907041E8030240
:101310002AB3206850E8030F216820F4907041E858
:101320000302002ADAD11AE0206850E8050F21688C
:1013300020F0010041E80502DAB1206850E8050F0D
:10134000216820F0010041E8050292B1206850E8D0
:10135000050F216820F0010041E805024AB120682C
:1013600050E8050F216820F0010041E80502002A3D
:10137000DAD1206B012824D1206850E8030F2168BE
:1013800020F0100041E80302DAB1206850E8030FB2
:10139000216820F0100041E8030292B1206850E873
:1013A000030F216820F0100041E803024AB12068D1
:1013B00050E8030F216820F0100041E80302002AE2
:1013C000DAD1202084F842000020206320684069A0
:1013D000400640F1C180206850E8050F216820F0E8
:1013E000400041E80502DAB1206850E8050F2168A5
:1013F00020F0400041E8050292B1206850E8050F56
:10140000216820F0400041E805024AB1206850E818
:10141000050F216820F0400041E80502002ADAD1DA
:10142000E06B002800F0988041F68D41C0F6000185
:101430000165FEF7B7FF00283FF41CAEE06B016DBD
:1014400002B0BDE8B04008472046FFF7D9FD0020B4
:10145000606402B0B0BD00BF401A00BF216851E80F
:10146000031F226821F4907142E80313BBB3216883
:1014700051E8031F226821F4907142E8031373B30B
:10148000216851E8031F226821F4907142E8031398
:101490002BB3216851E8031F226821F4907142E8C0
:1014A0000313002BDAD11AE0216851E8051F2268E6
:1014B00021F0010142E80513DBB1216851E8051F65
:1014C000226821F0010142E8051393B1216851E837
:1014D000051F226821F0010142E805134BB1216884
:1014E00051E8051F226821F0010142E80513002B95
:1014F000DAD1202184F8421000212163216851E8CB
:10150000031F226821F0100142E80313DBB12168B8
:1015100051E8031F226821F0100142E8031393B140
:10152000216851E8031F226821F0100142E80313EB
:101530004BB1216851E8031F226821F0100142E8F5
:101540000313002BDAD1022281B22046626302B07B
:10155000BDE8B040FFF752BD204602B0BDE8B04044
:10156000FFF74EBD216A31F8022B6FF35F22426014
:10157000216299E5002804BF0120704710B5044698
:1015800090F8410028B9002084F84000204600F07F
:1015900021F8242084F841002068C16821F400511A
:1015A000C160204600F0F8FB2068016921F49041F9
:1015B0000161416921F02A014161C16841F4005192
:1015C000C16000202021606484F8411084F842103A
:1015D000606310BD016841F20000C4F20100814265
:1015E00018BF704780B586B0002143F630020191E4
:1015F000C4F20202536900F5704043F010035361D6
:10160000536903F010030193019B0191136843F0A8
:1016100001031360126802F001020192019A4FF473
:10162000C06201920222CDE9022103210491072127
:10163000059101A9FEF7C8FE252005210022FFF72C
:1016400055F82520FFF740F806B0BDE88040704708
:10165000704700002DE9F041044690F84100202831
:101660001CBF0220BDE8F0810D4600294FF00100AB
:1016700000F0AA801646002A08BFBDE8F0810020CD
:1016800060642120984684F84100FEF773FFA68429
:10169000E684A1680646B1F5805F02D12069002882
:1016A00062D02F460025E08C002861D018F101009F
:1016B00018D0B8F1000F37D1216808E017F8010BF6
:1016C0004860E08C0138E084E08C002851D0086844
:1016D000000673D5002FF1D135F8020B00276FF308
:1016E0005F20EDE7216802E00868000609D4086879
:1016F000000606D4086800065CBF08685FEA006060
:10170000F2D51FB117F8010B05E000BF35F8020B49
:1017100000276FF35F204860E08C0138E084E08CA4
:101720000028E4D125E000BF216800BF086800065A
:1017300008D4FEF71FFF801B404541D82168C868C8
:10174000F4E700BF17B117F8010B04E035F8020BFE
:1017500000276FF35F204860E08C0138E084E08C64
:101760000028E3D105E000BF0027E08C00289DD1D0
:101770002168086840061FD4B8F1000F1ED018F188
:1017800001000FD10868400616D40868400613D43B
:101790000868400610D4086840064FF00000F1D5F4
:1017A0000FE000BFFEF7E6FE801B404508D820682A
:1017B000C16800684006F5D5002002E0FEF7DAFEB9
:1017C0000320202184F84110BDE8F081704700001B
:1017D000FEE7000010B541F6352044F20812C0F6CD
:1017E0000000C0F60002002100F0CCFB40F218041B
:1017F000C2F20004206041F6F51044F2D402C0F6B3
:101800000000C0F60002002100F0BCFB606041F661
:10181000851044F2A002C0F60000C0F600020021CC
:1018200000F0B0FBA06044F2F800C0F6000000F049
:1018300063FBE06044F2C400C0F6000000F05CFB13
:10184000206110BDF0B587B0002643F63000CDE929
:1018500005660196C4F202000168002441F01001FF
:1018600001600168C4F2020401F0100101910199C4
:1018700001960168002241F0800101600168C027E3
:1018800001F08001019101990196016841F0010187
:1018900001600068C02100F001000190019820461D
:1018A000FEF762FE182002ADCDE9020604F5805075
:1018B00029460496FEF788FD0120CDE9030620465F
:1018C000294602970596FEF77FFD07B0F0BD0000A0
:1018D00080B540F27C1041F20001C2F20000C4F277
:1018E000010100234FF00C0C4FF4E13280E80E00B0
:1018F000C0E90333C0E905C3C361FFF73BFE00281D
:1019000008BF80BDBDE88040FEF700BDFEE70000D7
:10191000FEE70000000000000000000000000000E2
:10192000EFF30980BFF36F8F154B1A681EF0100F8D
:1019300008BF20ED108A20E9F04F10602DE9090062
:101940004FF0500080F31188BFF34F8FBFF36F8FBC
:1019500001F0D0FB4FF0000080F31188BDE80900D2
:1019600019680868B0E8F04F1EF0100F08BFB0EC1F
:10197000108A80F30988BFF36F8F704700BF00BFE4
:101980002C0000200026012409A5C4F2020600BF95
:1019900028460A21224602F0ADFAE2B23046802102
:1019A000FEF7E2FD642084F0010400F095FAEFE711
:1019B00052656365697665205461736B20256420E8
:1019C00025640A0000000000000000000000000084
:1019D000074B19680868B0E8F04F80F30988BFF337
:1019E0006F8F4FF0000080F31188704700BF00BF79
:1019F0002C0000200026012409A5C4F2020600BF25
:101A000028460821224602F075FAE2B2304640210B
:101A1000FEF7AAFD0A2084F0010400F05DFAEFE76A
:101A200053656E64205461736B2025642025640A1D
:101A30000000000004A400BF2046182102F05AFA5A
:101A4000012000F049FAF7E744656661756C74207F
:101A50005461736B2025640A0000000080B54EF2CB
:101A60001000CEF20000006802F05AF8012808BF0A
:101A700080BDBDE8804001F095BC0000B0B592B0DB
:101A8000002443F64000CDE90A44CDE9084405941A
:101A9000CDE90344CDE901440094C4F20200016899
:101AA000022541F080510160006800F080500090F4
:101AB000009847F200000094C4F20000016841F46D
:101AC000804101600068482100F480400090009847
:101AD000012006904FF4803007904FF480000D9065
:101AE00004200E90119006A80C95CDE90F15FEF775
:101AF00069FF18B172B600BFFEE700BF0F20CDE945
:101B000001054FF48050CDE9040401A8022103949B
:101B1000FEF728FE10B172B6FEE700BF12B0B0BDEE
:101B20004EF68850CEF20000016841F47001016069
:101B30007047000040F23410C2F20000FFF7A6B96F
:101B400010B540F6FF3E0368C4F2000E40F2004CB0
:101B50007045C4F2010C27DCB0F1804F31D040F267
:101B60000042C4F2000290422BD040F60002C4F2C0
:101B70000002904225D041F6FF72C4F2000290426A
:101B800029DC70453CDCB0F1804F5FD040F2004270
:101B9000C4F20002904259D040F60002C4F20002A2
:101BA000904253D056E000BF40F60042C4F200021B
:101BB000904206D0604504D00022C4F20102904257
:101BC000D9D14A6823F07003134341F6FF72C4F27F
:101BD00000029042D5DD43F6FF72C4F2010290424A
:101BE00022DC42F20002C4F2000290422ED0002217
:101BF000C4F20102904229D0604527D02AE000BFFC
:101C000040F60042C4F2000290421FD041F60002AA
:101C1000C4F20002904219D041F60042C4F2000220
:101C2000904213D016E000BF44F20002C4F2010259
:101C300090420BD044F60002C4F20102904205D05B
:101C400044F20042C4F20102904203D1CA6823F474
:101C50004073134323F080024B69D1F800E08C6895
:101C60001A430260C46240F48062C0F828E0624512
:101C700004BF09690163012141610169C90708BF06
:101C800010BD016921F00101016110BD806B0021CF
:101C9000C185C184FFF7B4B981B090F84210222900
:101CA00021D183680246B3F5805F09D152F8281F1D
:101CB00052F8183C002B63D003685B680AE000BF51
:101CC00052F8281F13B90369002BF5D003685B682D
:101CD00003F07F030B70116801311160C18D013970
:101CE0000A04C18502D001B0704700BF0168CA680C
:101CF00022F02002CA60CA6822F48072CA604A696F
:101D000022F001024A61202180F842100021416343
:101D1000026B012A3CD10163016851E8031F02688C
:101D200021F0100142E80313DBB1016851E8031F01
:101D3000026821F0100142E8031393B1016851E8F1
:101D4000031F026821F0100142E803134BB1016840
:101D500051E8031F026821F0100142E80313002B31
:101D6000DAD101680A68D20606D5002200920A6814
:101D70000092496800910099818D01B0FFF73EB94A
:101D8000026852686FF35F2221F8022B8162A5E797
:101D900001B0FFF75DBC000010B504460068D4E94F
:101DA00002C22369016921F4405111430161626952
:101DB00043EA0C01E3691143C268194349F20C6319
:101DC0009A431143C1604169A26921F4407141F213
:101DD0000043114340F48062C4F201039A4241611E
:101DE00002D1FEF7A5FD01E0FEF78EFDE169636813
:101DF0001922B1F5004FA0FB020123D15A00DB0FDD
:101E0000FEF7DEF948F21F51C5F2EB11A0FB0123EA
:101E10005A094FF69C73C0F6FF7303F1805302FB1F
:101E20000300322303EBC000A0FB01014FF4F87064
:101E300000EA111000EB0210C1F3421108442168BE
:101E4000886010BD9A009B0FFEF7BAF948F21F5147
:101E5000C5F2EB11A0FB01235A094FF69C73C0F6A3
:101E6000FF7302FB0300322303EB0010A0FB010110
:101E7000F02000EA511000EB0210C1F343110844B6
:101E80002168886010BD000040F27C10C2F20000A2
:101E9000FFF7B8B8FEE7000080B582B0019040F2CD
:101EA0007C10C2F2000001A901224FF6FF73FFF778
:101EB000D1FB019802B080BDFEF770FBFFF7DEFD9D
:101EC000FFF7C0FCFFF704FD00F02AF8FFF782FCE3
:101ED00000F03AF8FEE70000EFF3058100291CBF8F
:101EE0006FF005007047002804BF0020704780B5E0
:101EF00000F0B6FF002080BDEFF3058171B938B165
:101F0000D0E9020130B1202928BF01F05FB905E016
:101F100001F04EB9002908BF01F04AB9002070470E
:101F2000EFF3058000281CBF6FF00500704740F2FA
:101F30003010C2F200000168002911BF4FF0FF30DD
:101F4000012101600020704710B5EFF305800028E3
:101F50001CBF6FF0050010BD40F23010C2F200004F
:101F6000016801291CBF4FF0FF3010BD4EF61F5114
:101F7000CEF2000100240C700221016001F03AF859
:101F8000204610BD2DE9F04184B00B460024039497
:101F9000EFF30581D0B3C9BB52B3D2F818E0BEF15C
:101FA000000F08BF4FF0180EBEF1380F2ED8117970
:101FB000C9072BD15769D2E902864FEA970C1168FD
:101FC000002F654608BF8025B8F1000F22D05C2E97
:101FD0001CD31269002A18BF002F17D0CDE900E2E8
:101FE0006246CDF8088001F05FFD04B0BDE8F081E5
:101FF00080254FF0180E002103AFAAB2CDE900E70B
:1020000001F022FD0399012808BF0C46204604B0C8
:10201000BDE8F081002EF9D11269002AF6D1EBE774
:102020002DE9F041044600F0E1FD40F22C06C2F239
:102030000006F06840F2B4250130F0603068C2F26A
:10204000000558B13069002840F007813068E16A26
:10205000C06A884298BF3460FFE000BF3460F06817
:10206000012840F0FA80284600F066FD05F11400D2
:1020700000F062FD05F1280000F05EFD05F13C0076
:1020800000F05AFD05F1500000F056FD05F1640026
:1020900000F052FD05F1780000F04EFD05F18C00D6
:1020A00000F04AFD05F1A00000F046FD05F1B40086
:1020B00000F042FD05F1C80000F03EFD05F1DC0036
:1020C00000F03AFD05F1F00000F036FD05F58270F4
:1020D00000F032FD05F58C7000F02EFD05F59670D0
:1020E00000F02AFD05F5A07000F026FD05F5AA70A8
:1020F00000F022FD05F5B47000F01EFD05F5BE7080
:1021000000F01AFD05F5C87000F016FD05F5D27057
:1021100000F012FD05F5DC7000F00EFD05F5E6702F
:1021200000F00AFD05F5F07000F006FD05F5FA7007
:1021300000F002FD05F5027000F0FEFC05F50770E9
:1021400000F0FAFC05F50C7000F0F6FC05F51170D6
:1021500000F0F2FC05F5167000F0EEFC05F51B70C2
:1021600000F0EAFC05F5207000F0E6FC05F52570AE
:1021700000F0E2FC05F52A7000F0DEFC05F52F709A
:1021800000F0DAFC05F5347000F0D6FC05F5397086
:1021900000F0D2FC05F53E7000F0CEFC05F5437072
:1021A00000F0CAFC05F5487000F0C6FC05F54D705E
:1021B00000F0C2FC05F5527000F0BEFC05F557704A
:1021C00000F0BAFC05F55C7000F0B6FC05F5617036
:1021D00000F0B2FC05F5667000F0AEFC05F56B7022
:1021E00000F0AAFC05F5707000F0A6FC05F575700E
:1021F00000F0A2FC05F57A7000F09EFC05F57F70FA
:1022000000F09AFC05F5826000F096FC05F224408F
:1022100000F092FC05F5876000F08EFC05F24C4062
:1022200000F08AFC40F20818C2F20008404600F0B4
:1022300083FC08F11407384600F07EFC06F16400C8
:1022400000F07AFC06F13C0000F076FC06F150004C
:1022500000F072FCC6F81C8037627068716A421C1C
:10226000E06A72608842626488BF706200EB80003E
:1022700005EB8000211D00F0A1FC00F0DBFC3069C3
:1022800088B13068E16AC06A884228BFBDE8F08141
:102290004EF60450CEF200004FF080510160BFF3C3
:1022A0004F8FBFF36F8FBDE8F081000040F22C0527
:1022B00040F2B4264EF60458C2F20005C2F20006FF
:1022C000CEF200084FF0805703E000BF204600F038
:1022D000C9FCA868D0B100F089FCA86CC468201DB6
:1022E00000F0FCFBE8680138E860A8680138A860E5
:1022F00000F0A0FC94F859000228EAD00128E5D0AB
:1023000070B9206B00F0AEFCE0E700BF3068022837
:10231000DFD3C8F80070BFF34F8FBFF36F8FD8E7DC
:102320004FF0500080F31188BFF36F8FBFF34F8FD2
:10233000FEE700002DE9F0470A9C8246206B164616
:102340000F46DDE908599100A5229846FDF77BFF6D
:10235000206B002F00EB8600A0F1040020F00706A0
:1023600056D0387884F83400387800284BD0787804
:1023700084F835007878002845D0B87884F836009D
:10238000B87800283FD0F87884F83700F878D0B3D0
:10239000387984F838003879A8B3787984F8390026
:1023A000787980B3B87984F83A00B87958B3F87975
:1023B00084F83B00F87930B3387A84F83C00387AF6
:1023C00008B3787A84F83D00787AE0B1B87A84F876
:1023D0003E00B87AB8B1F87A84F83F00F87A90B144
:1023E000387B84F84000387B68B1787B84F8410002
:1023F000787B40B1B87B84F84200B87B00281CBFD2
:10240000F87B84F84300002084F8430003E000BF19
:10241000002084F834000027201D372D28BF3725E1
:10242000E562C4E9135700F093FB04F1180000F0D3
:102430008FFBC5F13800A061304651464246246109
:102440006462676584F8587000F036FBB9F1000FDC
:10245000206018BFC9F80040BDE8F0870848006850
:10246000006880F308884FF0000080F3148862B69B
:1024700061B6BFF34F8FBFF36F8F00DF00BF000067
:1024800008ED00E081B00020009040F21000C2F2A0
:10249000000000684FF0500181F31188BFF36F8F87
:1024A000BFF34F8F013007D0FEE700BF009830B96F
:1024B000009820B9009810B900980028F6D001B013
:1024C0007047000088B040F2A40AC2F2000A0DF181
:1024D0001009EB46DAF8080005681DB1C068046809
:1024E00001E000BF002400F0FDFD01F029FBDAF857
:1024F00010100646884220D3002DCAF8106051D033
:10250000A6424FD301F024FCDAF80800C068C7687F
:102510003D1D284600F0E2FA97F82800410745D40F
:1025200000F0FE0087F8280084E000BF6860DAF859
:10253000080039462D6100F00FFBDAF80800016849
:1025400031B3C068C56804682F1D384600F0C6FA6C
:10255000296A2846884795F828004007EDD5A869DC
:102560002044A042E2D8DAF80000002800F04881B8
:10257000002004A931C101F0D3FADAF8000049467D
:102580000022002300F096FF0028D6D138E100BFDA
:10259000DAF80C10CAF81060CAE9021001F0D8FB92
:1025A0001AE100BF65B1002210E000BFB8693F61C9
:1025B0000119B14279601FD90AF1080021E000BF7A
:1025C000DAF80C000068B0FA80F04209DAF800008E
:1025D000A11B00F01BFC01F0BBFB002840F0FC80BD
:1025E0004EF60450CEF200004FF080510160BFF370
:1025F0004F8FBFF36F8FEFE0311B814206D20AF19C
:102600000C000068294600F0A7FA13E0DAF8000091
:10261000002800F01381002004A991C101F080FA84
:10262000DAF8000049460022002300F043FF0028AA
:1026300000F00481396A38468847CDE00098B0F14F
:10264000FF3F07DCDDE9012003999047009800284F
:1026500000F1C280029E706910B1301D00F03EFA98
:1026600001F06EFADAF81010074688420DD3009890
:10267000CAF8107009283FD9AEE000BF6860DAF8E8
:10268000080021462D6100F067FADAF808000168B9
:1026900041B3C068C568D0F800802C1D204600F00A
:1026A0001DFA296A2846884795F828004007ECD586
:1026B000A86940444045E1D8DAF80000002800F05D
:1026C00095800020CDE90408069501F029FADAF892
:1026D000000049460022002300F0ECFE0028D4D17F
:1026E00084E000BFDAF80C10CAE902100098CAF8BA
:1026F0001070092800F27080DFE800F0060606443A
:1027000048620606444800BF96F82800019A40F047
:102710000101B06986F828108318314641F8043F5A
:10272000BB42366106D997420AF1080007D29342AC
:102730000AD204E0BA1A824206D20AF10C000068FA
:1027400000F00AFA48E000BF316A3046884796F840
:102750002800400740D5DAF8000000285AD0019838
:10276000B169069608440021CDE9041001F0D8F9BA
:10277000DAF8000049460022002300F09BFE58BB17
:1027800048E000BF96F8280022E000BF96F8280035
:1027900040F00101019886F828100028B06143D06C
:1027A000384431460AF10C0241F8040F3661B84250
:1027B00088BF0AF10802106800F0CEF90CE000BFF3
:1027C00096F82800810703D4304600F04BFA03E066
:1027D00000F0FE0086F82800DAF8000059460022D2
:1027E00000F0C6FF00287FF429AF73E64FF05000D9
:1027F00080F31188BFF36F8FBFF34F8FFEE700BFE9
:102800004FF0500080F31188BFF36F8FBFF34F8FED
:10281000FEE700BF4FF0500080F31188BFF36F8FC9
:10282000BFF34F8FFEE700BF4FF0500080F31188D9
:10283000BFF36F8FBFF34F8FFEE700BF4FF0500025
:1028400080F31188BFF36F8FBFF34F8FFEE7000057
:10285000F0B581B0044600F0C9F994F94560012E45
:102860000FDB04F1240500BF286850B1284601F0B1
:1028700035FA002818BF00F03DFBF0B2013E0128F8
:10288000F2D8FF2684F8456000F0D4F900F0AEF9E4
:1028900094F94470012F0EDB04F11005286850B143
:1028A000284601F01BFA002818BF00F023FBF8B2FD
:1028B000013F0128F2D884F8446001B0BDE8F0403F
:1028C00000F0B8B970B5044600F00CFC40F2E00C22
:1028D000C2F2000CDCF8040050B19CF800000028A3
:1028E00018BF4FF000404FF0000544BB83E000BF2D
:1028F00040F21470C2F20000420700F5705200F17D
:10290000070122F0070218BF21F007000021A2F101
:102910000803CCE90601CCF8043042E90211DCF8E6
:102920000420191AC0E9002101208CF800004FF0A2
:102930000040CCE90211002C4FF000055BD0204094
:1029400059D124F0070000F11002600708BF04F11C
:102950000802DCF80800511E81424CD2604650F853
:1029600018EFDEF8045095422BD2DEF80010B9B112
:1029700074464D68954217D20B68ABB15D689542BD
:1029800016D21868A0B14568954215D204689CB16A
:102990006568954214D22168A6460029E9D110E065
:1029A0000CF118000DE000BF8E46204609E000BF84
:1029B0009E46084605E000BF8646184601E000BF77
:1029C000A646DCF804108E4514D00168DEF80040FD
:1029D000AB1A112B04604DD30EEB0205680719D01A
:1029E0004FF0500080F31188BFF36F8FBFF34F8F0C
:1029F000FEE700BF002501F0ABF968075AD04FF0A1
:102A0000500080F31188BFF36F8FBFF34F8F00BF6B
:102A1000FEE700BF0CF118006B60CEF8042000BF89
:102A20000368AB420AD21868A8420BD20368AB42D3
:102A300004D218681A46A842F2D304E002461846A7
:102A400001E000BF1A4654686B681619AE4202D105
:102A5000234415465360EC18844207D1DCF8044047
:102A6000A04203D0D0E9000423446B60AA4228604E
:102A700018BF1560DEF80400DCE9022301F1080547
:102A8000111A9942CCF8081038BFCCF80C109CF8F9
:102A9000001000294FF0000118BF40F00040CEE9BF
:102AA0000010DCF810000130CCF8100001F050F9F3
:102AB0006807A4D1284670BD034642F2854021F044
:102AC0000101C0F600004FF0807C03E903106FF0B5
:102AD0000201A3F1440043E909127047D0E9013231
:102AE00001699A60D1F804C082688445536008BFC8
:102AF0004A6000220261086801380860086870476F
:102B000044F21853C2F20003036044F21830C2F2D8
:102B100000000860802010607047000044F67413C5
:102B2000C2F20003036044F27450C2F20000086075
:102B30004FF48070106070474FF0FF31024642F84A
:102B4000081F00214260C0E90322016070470000B5
:102B5000002101617047000010B5D1F800E01EF1BE
:102B6000010213D000F1080462681368734511D89C
:102B700053681C68744511D85A68146874450FD896
:102B800054682368A4467345EED90BE00269D2F875
:102B900004C007E09446224604E000BF9C4601E0E2
:102BA00094461A46C1F804C0CCF808108A605160F7
:102BB000086101680131016010BD0000D0F800C05B
:102BC000436808619A684B608A609A6899605160AE
:102BD0000CF1010101607047DFF80C00016841F45D
:102BE000700101607047000088ED00E04FF0500078
:102BF00080F31188BFF36F8FBFF34F8F40F2100047
:102C0000C2F2000001684A1C026009B1704700BFAF
:102C10004EF60450CEF200000068000608BF704770
:102C20004FF0500080F31188BFF36F8FBFF34F8FC9
:102C3000FEE7000040F21000C2F20000016839B166
:102C40000139016018BF7047002080F31188704778
:102C50004FF0500080F31188BFF36F8FBFF34F8F99
:102C6000FEE7000070B5002808BF70BD40F2E00527
:102C7000C2F200050446287854F8041C002818BF46
:102C80004FF0004008420DD0A4F1080632689AB116
:102C90004FF0500080F31188BFF36F8FBFF34F8F59
:102CA000FEE700BF4FF0500080F31188BFF36F8F35
:102CB000BFF34F8FFEE700BF21EA000044F8040C89
:102CC00000F010FA54F8041CA8680844A86005F144
:102CD000180000BF0368B3420AD21868B04225D278
:102CE0000368B34204D218681A46B042F2D301E036
:102CF000024618465368D418B44202D11944164605
:102D000051607318834206D16B68984203D0D0E9B2
:102D1000000319447160B242306018BF16606869E0
:102D200001306861BDE8704001F012B81A4653687E
:102D3000D418B442E5D1E1E74EF21000CEF2000023
:102D400000210160816040F20C01C2F200010968BB
:102D500001394160072101607047000044F6D01C32
:102D6000C2F2000CDCF8002022B3634653F8082FAF
:102D700042B3634653F8102F52B3634653F8182FEB
:102D800062B3634653F8202F72B3634653F8282F7B
:102D900082B3634653F8302F92B3634653F8382F0B
:102DA000002A18BF7047072219600CEBC201486067
:102DB000704700BF0022634619600CEBC2014860F7
:102DC000704700BF012219600CEBC20148607047D8
:102DD000022219600CEBC20148607047032219609F
:102DE0000CEBC20148607047042219600CEBC20171
:102DF00048607047052219600CEBC20148607047BB
:102E0000062219600CEBC2014860704770B5154688
:102E10000E460446FFF7EAFE94F84400FF2804BF7C
:102E2000002084F8440094F84500FF2804BF0020E7
:102E300084F84500FFF7FEFEA06B28B12046BDE8F0
:102E40007040FFF705BD00BF04F1240031462A465B
:102E500000F092F82046BDE87040FFF7F9BC000092
:102E600070B588B340F22C05C2F2000504466869CB
:102E700050B14FF0500080F31188BFF36F8FBFF354
:102E80004F8F00BFFEE700BF686901306861AE691F
:102E900028680430FFF722FE2868A419446005D38F
:102EA000286A29680431FFF757FE08E0E8692968B5
:102EB0000431FFF751FEE86A844238BFEC6200F04B
:102EC00047FF002818BF70BD4EF60450CEF2000038
:102ED0004FF080510160BFF34F8FBFF36F8F70BD14
:102EE00040F22C01C2F200018A6B026089694160E4
:102EF0007047000040F22C00C2F200000121016383
:102F00007047000070B5D8B140F22C04C2F2000442
:102F10000D4621681831FFF71FFEA66920680430AE
:102F2000FFF7DCFD681C15D02068AD19456019D38A
:102F3000206A21680431BDE87040FFF70DBE00BF74
:102F40004FF0500080F31188BFF36F8FBFF34F8FA6
:102F5000FEE700BF54F8500B011D2046BDE870404D
:102F6000FFF72CBEE06921680431FFF7F5FDE06A48
:102F7000854238BFE56270BDF0B581B0C0B140F2A6
:102F80002C04C2F200040D46216816461831FFF7E2
:102F900015FEA76920680430FFF7A0FD96B154F82C
:102FA000500B011D204601B0BDE8F040FFF706BE02
:102FB0004FF0500080F31188BFF36F8FBFF34F8F36
:102FC000FEE700BF2068ED19456007D3206A21683D
:102FD000043101B0BDE8F040FFF7BEBDE0692168F3
:102FE0000431FFF7B9FDE06A854238BFE56201B000
:102FF000F0BD000010B588B00020CDE9050006A89E
:1030000005A904AAFFF77CFD059800283ED0069C80
:10301000002C45D05C21049A079107995C2949D17D
:1030200007992063022084F8590007A80021CDE900
:10303000001042F2AD20C0F6000028A10023029447
:10304000FFF778F92046FEF7EBFF079840F22C04D3
:10305000C2F20004A062B0B100F0F2FE411C33D015
:10306000012810D14FF0500080F31188BFF36F8F0B
:10307000BFF34F8F4FF0FF30E0620120206100204E
:10308000A06100F0CBF808B010BD00BF4FF05000B9
:1030900080F31188BFF36F8FBFF34F8FFEE700BF40
:1030A0004FF0500080F31188BFF36F8FBFF34F8F45
:1030B000FEE700BF4FF0500080F31188BFF36F8F21
:1030C000BFF34F8FFEE700BF4FF0500080F3118831
:1030D000BFF36F8FBFF34F8FFEE700BF49444C45EE
:1030E0000000000040F22C00C2F2000041690131F2
:1030F0004161704780B540F22C0EC2F2000EDEF83E
:10310000141019B10121CEF8301080BD0021CEF885
:103110003010DEF8241040F2B42C01EB8103C2F22F
:10312000000C5CF823208AB101EB81020CEB8203D6
:1031300053F8042F5268181D82421A6020D0D068BC
:10314000CEF80000CEF8241080BD00BF0CEB830247
:10315000A2F12803E1B15A6922BB012918D01A68EB
:1031600012BB022914D053F8142CFAB903290FD03A
:1031700053F8282C0439002AA3F15003EAD0D3E7EE
:1031800052681A60D068CEF80000CEF8241080BDD6
:103190004FF0500080F31188BFF36F8FBFF34F8F54
:1031A000FEE700BF0139BFE70239BDE70339BBE7DE
:1031B000B0B52020FFF786FB044628B10025201D6E
:1031C0002560FFF7B9FC25772046B0BD10B582B069
:1031D00080B10446202001900198202814D10020BD
:1031E0002060201DFFF7A8FC01212046217702B0B6
:1031F00010BD00BF4FF0500080F31188BFF36F8FF8
:10320000BFF34F8FFEE700BF4FF0500080F31188EF
:10321000BFF36F8FBFF34F8FFEE70000B0B584B0F0
:103220004EF2004CCEF2000C4CF27021C4F20F11A1
:10323000DCF800294B1C9A420AD14FF0500080F371
:103240001188BFF36F8FBFF34F8F00BFFEE700BF42
:10325000DCF800298A4209D14FF0500080F3118830
:10326000BFF36F8FBFF34F8FFEE700BF9CF80010D6
:103270000291FF218CF800109CF800108DF80710C7
:103280009DF8071001F0500240F20011C2F2000157
:103290000A7007224A609DF90720B2F1FF3F6BDCFC
:1032A000032200BFD31C4B609DF8070040008DF83F
:1032B00007009DF90700B0F1FF3F24DC931C4B6031
:1032C0009DF8070040008DF807009DF90700B0F158
:1032D000FF3F18DC531C4B609DF8070040008DF841
:1032E00007009DF90700B0F1FF3F0CDC4A609DF834
:1032F0000700043A40008DF807009DF90700B0F17F
:10330000FF3FCFDD131D032B36D14FF440704860D3
:1033100002988CF80000DCF8200940F47000CCF82A
:103320002009DCF8200940F07040CCF82009FFF7B4
:1033300003FD40F21004C2F2000400252560FFF7EF
:103340004BFC4EF63470CEF20000016841F0404173
:103350000160FFF783F8FFF7CDFE039520684FF07B
:10336000500181F31188BFF36F8FBFF34F8F01308E
:1033700012D000BFFEE700BF4FF0500080F311886D
:10338000BFF36F8FBFF34F8FFEE700BF039830B9D5
:10339000039820B9039810B903980028F6D00020AC
:1033A00004B0B0BD80B54FF0500080F31188BFF37A
:1033B0006F8FBFF34F8F00F0C9FB30B14EF6045052
:1033C000CEF200004FF080510160002080F31188A0
:1033D00080BD000070B582B070B11C46B3B1F9B9C0
:1033E000F2B14FF0500080F31188BFF36F8FBFF33D
:1033F0004F8F00BFFEE700BF4FF0500080F31188F1
:10340000BFF36F8FBFF34F8FFEE700BF4FF0500049
:1034100080F31188BFF36F8FBFF34F8FFEE700BFBC
:1034200051B14AB94FF0500080F31188BFF36F8F4C
:10343000BFF34F8FFEE700BF50230193019B502B3A
:103440002ED1019B069E012384F84630002908BF37
:1034500022462260C4E90F01FFF7C8FB2068D4E9C7
:103460000F12002502FB0103013901FB0201A563D4
:10347000C4E90103FF20E16084F8440084F84500BA
:1034800004F11000FFF758FB04F12400FFF754FB90
:10349000FFF7D0FB204684F84C6002B070BD00BF3F
:1034A0004FF0500080F31188BFF36F8FBFF34F8F41
:1034B000FEE700002DE9F04F83B00292C0B11D4637
:1034C00017460E460446E9B1022D02D1E06B0128F1
:1034D0005AD100F025FB18BB17B34FF0500080F312
:1034E0001188BFF36F8FBFF34F8F00BFFEE700BFA0
:1034F0004FF0500080F31188BFF36F8FBFF34F8FF1
:10350000FEE700BF206C0028DED04FF0500080F3B3
:103510001188BFF36F8FBFF34F8F00BFFEE700BF6F
:10352000FFF764FBA06B022D65D0E16B884262D38C
:103530000298002800F016816846FFF7D1FCFFF7DB
:1035400079FBFFF7CFFDFFF751FB94F84400FF280C
:1035500004BF002084F8440094F84500FF2804BF0D
:10356000002084F84500FFF765FB684602A900F0DB
:103570001FFA98B12046FFF76BF900F0E9FB002035
:1035800003B0BDE8F08F00BF4FF0500080F311880A
:10359000BFF36F8FBFF34F8FFEE700BF04F110083A
:1035A000FFF724FBD4F83890E76BFFF743FBB945EE
:1035B00016D102994046FFF7A5FC2046FFF748F9CF
:1035C00000F0C6FB88B94EF60450CEF200004FF072
:1035D00080510160BFF34F8FBFF36F8F05E000BFD5
:1035E0002046FFF735F900F0B3FBFFF7FFFAA06BB9
:1035F000E16B884264D2A76B226CDAB125B3E06834
:103600003146FCF70EFEE168206C2268091A9142EF
:10361000E16003D2A16840420844E060A81EB0FA0D
:1036200080F040093946002F18BF012108403F1A99
:1036300017E000BF20680025A0B9A06800F008FBD3
:10364000A56005460EE000BF60683146FCF7E9FD65
:10365000D4E90101226C10448842606001D32068E3
:1036600060600025781CA06354F8240FA0B12046A8
:1036700000F034FB50B14EF60450CEF200004FF093
:1036800080510160BFF34F8FBFF36F8FFFF7D2FA06
:10369000012003B0BDE8F08F002DF7D04EF60450A6
:1036A000CEF200004FF080510160BFF34F8FBFF3A7
:1036B0006F8FFFF7BFFA012003B0BDE8F08F00BFA6
:1036C000E94602AF0CE000BF2046FFF7C1F800F06A
:1036D0003FFBFFF78BFAA06BE16B8842FFF48BAFE7
:1036E000029800283ED0FFF7A5FAFFF7FBFCFFF792
:1036F0007DFA94F84400FF2804BF002084F84400B9
:1037000094F84500FF2804BF002084F84500FFF727
:1037100091FA4846394600F04BF900287FF42AAF69
:10372000FFF764FAD4F838A0D4F83CB0FFF782FA77
:10373000DA45C9D102994046FFF7E4FB2046FFF77E
:1037400087F800F005FB0028C3D14EF60450CEF2F6
:1037500000004FF080510160BFF34F8FBFF36F8FB8
:10376000B7E700BFFFF766FA002003B0BDE8F08FAF
:103770002DE9F04F83B0029290B116460D460446F3
:10378000002947D000F0CCF9A0B99EB14FF050000D
:1037900080F31188BFF36F8FBFF34F8FFEE700BF39
:1037A0004FF0500080F31188BFF36F8FBFF34F8F3E
:1037B000FEE700BFFFF71AFAD4F838A0BAF1000FFD
:1037C00036D0226C52B1D4E902011144E160814249
:1037D00024BF2168E1602846FCF723FDAAF101001F
:1037E000A06354F8100F70B1204600F077FA50B182
:1037F0004EF60450CEF200004FF080510160BFF34E
:103800004F8FBFF36F8F0124FFF714FA204603B0E8
:10381000BDE8F08F206C0028B4D04FF0500080F34A
:103820001188BFF36F8FBFF34F8F00BFFEE700BF5C
:103830000298002800F0B4806846FFF751FBFFF7BC
:10384000F9F9FFF74FFCFFF7D1F994F8440004F1C0
:103850002408FF2804BF002084F8440094F84500A1
:10386000FF2804BF002084F84500FFF7E3F968460D
:1038700002A900F09DF878B12046FEF7E9FF00F0BC
:1038800067FAFFF7B3F9A66BFFF7D4F92EBB002454
:10389000204603B0BDE8F08FFFF7A8F9A66BFFF74D
:1038A000C9F92EB12046FEF7D3FF00F051FA14E01B
:1038B00002994046FFF726FB2046FEF7C9FF00F0BD
:1038C00047FA50B94EF60450CEF200004FF0805146
:1038D0000160BFF34F8FBFF36F8FFFF787F9D4F805
:1038E00038A0BAF1000F7FF46CAF4FF00009EB463F
:1038F00002AE13E02046FEF7ABFF00F029FAFFF717
:1039000075F9A76BFFF796F9002FC0D0FFF76EF996
:10391000D4F838A0BAF1000F7FF453AF0298002812
:103920003ED0FFF787F9FFF7DDFBFFF75FF994F86B
:103930004400FF2808BF84F8449094F84500FF280D
:1039400008BF84F84590FFF775F95846314600F0F6
:103950002FF80028CED1FFF749F9A76BFFF76AF9D6
:1039600037B12046FEF774FF00F0F2F9CEE700BF52
:1039700002994046FFF7C6FA2046FEF769FF00F0BD
:10398000E7F90028C2D14EF60450CEF200004FF005
:1039900080510160BFF34F8FBFF36F8FB6E700BF59
:1039A0000024FFF747F9204603B0BDE8F08F000080
:1039B000B0B538B30D4679B30446FFF717F940F2B6
:1039C0002C0CC2F2000CDCF8182029684B1C2DD0FE
:1039D000D4E9000EDCF83830834201D072452DD294
:1039E000A2EB0E02914227D9881A2860DCF8380031
:1039F0002060DCF8180060600024FFF71BF9204607
:103A0000B0BD00BF4FF0500080F31188BFF36F8F3F
:103A1000BFF34F8FFEE700BF4FF0500080F31188D7
:103A2000BFF36F8FBFF34F8FFEE700BF0024FFF798
:103A300001F92046B0BD00BF002028600124FFF737
:103A4000F9F82046B0BD00002DE9F04383B00746E9
:103A50009000984615468946FEF734FFF8B10646B1
:103A60005C20FEF72FFFB8B10446DDE90A10002202
:103A7000266384F85920CDE90010384649462A4685
:103A800043460294FEF756FC2046FEF7C9FA012091
:103A900003B0BDE8F08300BF3046FFF7E3F84FF016
:103AA000FF3003B0BDE8F08370B586B00B9CCCB19D
:103AB0000C9E0EB35C250495049D5C2D26D1049DBF
:103AC000DDF828C0022586F8595005AD3463CDE9EC
:103AD00000C50296FEF72EFC3046FEF7A1FA0598C7
:103AE00006B070BD4FF0500080F31188BFF36F8FA8
:103AF000BFF34F8FFEE700BF4FF0500080F31188F7
:103B0000BFF36F8FBFF34F8FFEE700BF4FF0500042
:103B100080F31188BFF36F8FBFF34F8FFEE7000074
:103B200040F22C00C2F20000016900290FBF012001
:103B30004069B0FA80F0400918BF400070470000AB
:103B400040F22C00C2F20000806970472DE9F0437A
:103B500081B040F22C06C2F20006706940B1706B71
:103B6000002401307063204601B0BDE8F08300BF3F
:103B7000B06910F10109C6F8189020D3F069006807
:103B800050B14FF0500080F31188BFF36F8FBFF337
:103B90004F8F00BFFEE700BFF069316AF16130620C
:103BA000B06B0130B063F069006828B1F069C0689B
:103BB000C068406802E000BF4FF0FF30F062F06A7A
:103BC00040F2B4288145C2F2000801D200242EE060
:103BD000F0690024006813E0F86A716A884288BFBF
:103BE000706200EB800008EB80002946FEF7E6FFDC
:103BF000F86A3168C96AF269884228BF01241068EE
:103C000090B1F069C068C7683D4655F8040F81451A
:103C10000CD32846FEF762FFB86A0028DCD007F113
:103C20001800FEF75BFFD7E74FF0FF30F062306817
:103C3000C06A00EB800058F82000012888BF0124EA
:103C4000306B002818BF0124204601B0BDE8F08386
:103C500070B588B140F22C06C2F200060446306806
:103C6000A0420BD04FF0500080F31188BFF36F8F4C
:103C7000BFF34F8FFEE700BF002070BD206D18B36B
:103C8000013820654FF0000018BF70BDE16AE26C9A
:103C9000914218D0251D2846FEF720FFE06CC0F1A8
:103CA0003801E062A161716A884240F2B42188BFA4
:103CB000706200EB8000C2F2000101EB8000294637
:103CC000FEF77CFF012070BD4FF0500080F311889B
:103CD000BFF36F8FBFF34F8FFEE7000070B5C06872
:103CE000C5686DB105F118042046FEF7F7FE40F2F5
:103CF0002C06C2F20006706960B106F164001AE099
:103D00004FF0500080F31188BFF36F8FBFF34F8FD8
:103D1000FEE700BF2C1D2046FEF7E0FEE86A716A50
:103D2000884240F2B42188BF706200EB8000C2F28A
:103D3000000101EB80002146FEF740FFE86A316890
:103D4000C96A884292BF00200120306370BD000024
:103D50002DE9F04140F22C05C2F20005686968B116
:103D6000FEF744FF686901386861686980B1002422
:103D7000FEF760FF2046BDE8F08100BF4FF0500025
:103D800080F31188BFF36F8FBFF34F8FFEE700BF43
:103D9000E8680028EBD0686E88B340F2B426C2F21F
:103DA00000064FF0010800BF286FC76807F1180030
:103DB000FEF794FE3C1D2046FEF790FEF86A696A05
:103DC000884288BF686200EB800006EB80002146D5
:103DD000FEF7F4FEF86A2968C96A884228BFC5F868
:103DE0003080686E0028DFD1E869006820B1E8699A
:103DF000C068C068406801E04FF0FF30E8626C6B5B
:103E00004CB10126FFF7A2FE002818BF2E63013C2B
:103E1000F8D100206863286B0028A8D04EF6045023
:103E2000CEF200004FF080510160BFF34F8F0124AC
:103E3000BFF36F8FFEF7FEFE2046BDE8F081000065
:103E400070B586B0FEF7D2FE40F2A406C2F20006BC
:103E5000306808BB06F114042046FEF76DFE06F13B
:103E600028052846FEF768FE40F2C41240F264239B
:103E7000C6E902450025C2F20002C2F200030A2090
:103E800010210095FFF7A6FA306028B144F25711CF
:103E9000C0F60001FEF762FFFEF7CCFE3068D8B135
:103EA0000020CDE9040005A804A903AAFEF736FE08
:103EB000DDE903200221059DCDE9001042F2C54055
:103EC000C0F6000009A100230295FFF7EDFD706028
:103ED00010B1012006B070BD4FF0500080F3118882
:103EE000BFF36F8FBFF34F8FFEE700BF546D72209B
:103EF000537663000FB4054B10B503A9044A02982A
:103F000000F018F810BC5DF814FB0000991E0008C2
:103F10000000002002E008C8121F08C1002AFAD1E0
:103F200070477047002001E001C1121F002AFBD139
:103F3000704700002DE9FF4F89B09B4604460025DD
:103F400006E025280BD05A460B999047641C6D1C3F
:103F500020780028F5D10DB02846BDE8F08F002765
:103F6000B8460122474900E0074314F8013F203BCF
:103F700002FA03F00842F7D120782E2819D114F85C
:103F8000010F47F004072A280ED06FF02F02207887
:103F9000A0F1300109290CD808EB880102EB41019E
:103FA00000EB0108641CF2E70A98641C50F8048BCB
:103FB0000A9020780028CED0642808D0692806D03E
:103FC00075281ED05A460B9990476D1C58E00A99E7
:103FD0004FF00A0901C90A91002802DA40422D2156
:103FE00002E0390504D52B218DF82010012103E0D2
:103FF000F90704D02021F7E78A4608AE0DE000213A
:10400000FAE70A994FF00A0901C90A91F7E7494608
:10401000FCF72BF9303106F8011D0028F7D1ADEB84
:10402000060000F12009780701D44FF00108C845C7
:1040300002DDA8EB090000E000208046002706E032
:1040400008A85A46C05D0B9990476D1C7F1C5745C8
:10405000F6DB04E030205A460B9990476D1CB8F10E
:104060000001A8F10108F5DC05E016F8010B5A463D
:104070000B9990476D1CB9F10001A9F10109F4DC1D
:10408000641C65E709280100000000000000000032
:1040900001020304060708090000000001020304EE
:1040A0003141000800000000000000000000000096
:1040B00000000000000200000A00000000000000F4
:1040C0000000000041410008000000000000000066
:1040D000000000002C41000800000000000000006B
:1040E00000000000000000000002000008000000C6
:1040F000000000000000000039410008000000003E
:1041000000000000000000004B410008000000001B
:10411000000000000000000000000000000200009D
:1041200018000000000000000000000053656E64ED
:1041300000526563656976650053656E64696E67F4
:1041400000526563656976696E67006465666175CE
:104150006C745461736B00546D725100804100089F
:104160000000002018000000143F000898410008DB
:1041700018000020F84D0000243F00080000000057
:104180000000000001000000100000000024F40006
:08419000AAAAAAAA000000007F
:040000050800018965
:00000001FF
